{
  "_format": "hh-sol-artifact-1",
  "contractName": "myEpicGame",
  "sourceName": "contracts/MyEpicGame.sol",
  "abi": [
    {
      "inputs": [
        {
          "internalType": "string[]",
          "name": "characterName",
          "type": "string[]"
        },
        {
          "internalType": "string[]",
          "name": "characterImageURI",
          "type": "string[]"
        },
        {
          "internalType": "uint256[]",
          "name": "characterHealth",
          "type": "uint256[]"
        },
        {
          "internalType": "uint256[]",
          "name": "characterAttackDamage",
          "type": "uint256[]"
        },
        {
          "internalType": "string",
          "name": "bossName",
          "type": "string"
        },
        {
          "internalType": "string",
          "name": "bossImageURI",
          "type": "string"
        },
        {
          "internalType": "uint256",
          "name": "bossHealth",
          "type": "uint256"
        },
        {
          "internalType": "uint256",
          "name": "bossAttackDamage",
          "type": "uint256"
        }
      ],
      "stateMutability": "nonpayable",
      "type": "constructor"
    },
    {
      "anonymous": false,
      "inputs": [
        {
          "indexed": true,
          "internalType": "address",
          "name": "owner",
          "type": "address"
        },
        {
          "indexed": true,
          "internalType": "address",
          "name": "approved",
          "type": "address"
        },
        {
          "indexed": true,
          "internalType": "uint256",
          "name": "tokenId",
          "type": "uint256"
        }
      ],
      "name": "Approval",
      "type": "event"
    },
    {
      "anonymous": false,
      "inputs": [
        {
          "indexed": true,
          "internalType": "address",
          "name": "owner",
          "type": "address"
        },
        {
          "indexed": true,
          "internalType": "address",
          "name": "operator",
          "type": "address"
        },
        {
          "indexed": false,
          "internalType": "bool",
          "name": "approved",
          "type": "bool"
        }
      ],
      "name": "ApprovalForAll",
      "type": "event"
    },
    {
      "anonymous": false,
      "inputs": [
        {
          "indexed": false,
          "internalType": "uint256",
          "name": "newBossHealth",
          "type": "uint256"
        },
        {
          "indexed": false,
          "internalType": "uint256",
          "name": "newPlayerHealth",
          "type": "uint256"
        }
      ],
      "name": "AttackComplete",
      "type": "event"
    },
    {
      "anonymous": false,
      "inputs": [
        {
          "indexed": false,
          "internalType": "address",
          "name": "sender",
          "type": "address"
        },
        {
          "indexed": false,
          "internalType": "uint256",
          "name": "tokenId",
          "type": "uint256"
        },
        {
          "indexed": false,
          "internalType": "uint256",
          "name": "characterIndex",
          "type": "uint256"
        }
      ],
      "name": "CharacterNFTMinted",
      "type": "event"
    },
    {
      "anonymous": false,
      "inputs": [
        {
          "indexed": true,
          "internalType": "address",
          "name": "from",
          "type": "address"
        },
        {
          "indexed": true,
          "internalType": "address",
          "name": "to",
          "type": "address"
        },
        {
          "indexed": true,
          "internalType": "uint256",
          "name": "tokenId",
          "type": "uint256"
        }
      ],
      "name": "Transfer",
      "type": "event"
    },
    {
      "inputs": [
        {
          "internalType": "address",
          "name": "to",
          "type": "address"
        },
        {
          "internalType": "uint256",
          "name": "tokenId",
          "type": "uint256"
        }
      ],
      "name": "approve",
      "outputs": [],
      "stateMutability": "nonpayable",
      "type": "function"
    },
    {
      "inputs": [],
      "name": "attackBoss",
      "outputs": [],
      "stateMutability": "nonpayable",
      "type": "function"
    },
    {
      "inputs": [
        {
          "internalType": "address",
          "name": "owner",
          "type": "address"
        }
      ],
      "name": "balanceOf",
      "outputs": [
        {
          "internalType": "uint256",
          "name": "",
          "type": "uint256"
        }
      ],
      "stateMutability": "view",
      "type": "function"
    },
    {
      "inputs": [],
      "name": "bigBoss",
      "outputs": [
        {
          "internalType": "string",
          "name": "name",
          "type": "string"
        },
        {
          "internalType": "string",
          "name": "imageURI",
          "type": "string"
        },
        {
          "internalType": "uint256",
          "name": "health",
          "type": "uint256"
        },
        {
          "internalType": "uint256",
          "name": "maxHealth",
          "type": "uint256"
        },
        {
          "internalType": "uint256",
          "name": "attackDamage",
          "type": "uint256"
        }
      ],
      "stateMutability": "view",
      "type": "function"
    },
    {
      "inputs": [],
      "name": "checkIfUserHasNFT",
      "outputs": [
        {
          "components": [
            {
              "internalType": "uint256",
              "name": "characterIndex",
              "type": "uint256"
            },
            {
              "internalType": "string",
              "name": "name",
              "type": "string"
            },
            {
              "internalType": "string",
              "name": "imageURI",
              "type": "string"
            },
            {
              "internalType": "uint256",
              "name": "health",
              "type": "uint256"
            },
            {
              "internalType": "uint256",
              "name": "maxHealth",
              "type": "uint256"
            },
            {
              "internalType": "uint256",
              "name": "attackDamage",
              "type": "uint256"
            }
          ],
          "internalType": "struct myEpicGame.CharacterAttributes",
          "name": "",
          "type": "tuple"
        }
      ],
      "stateMutability": "view",
      "type": "function"
    },
    {
      "inputs": [],
      "name": "getAllDefaultCharacters",
      "outputs": [
        {
          "components": [
            {
              "internalType": "uint256",
              "name": "characterIndex",
              "type": "uint256"
            },
            {
              "internalType": "string",
              "name": "name",
              "type": "string"
            },
            {
              "internalType": "string",
              "name": "imageURI",
              "type": "string"
            },
            {
              "internalType": "uint256",
              "name": "health",
              "type": "uint256"
            },
            {
              "internalType": "uint256",
              "name": "maxHealth",
              "type": "uint256"
            },
            {
              "internalType": "uint256",
              "name": "attackDamage",
              "type": "uint256"
            }
          ],
          "internalType": "struct myEpicGame.CharacterAttributes[]",
          "name": "",
          "type": "tuple[]"
        }
      ],
      "stateMutability": "view",
      "type": "function"
    },
    {
      "inputs": [
        {
          "internalType": "uint256",
          "name": "tokenId",
          "type": "uint256"
        }
      ],
      "name": "getApproved",
      "outputs": [
        {
          "internalType": "address",
          "name": "",
          "type": "address"
        }
      ],
      "stateMutability": "view",
      "type": "function"
    },
    {
      "inputs": [],
      "name": "getBigBoss",
      "outputs": [
        {
          "components": [
            {
              "internalType": "string",
              "name": "name",
              "type": "string"
            },
            {
              "internalType": "string",
              "name": "imageURI",
              "type": "string"
            },
            {
              "internalType": "uint256",
              "name": "health",
              "type": "uint256"
            },
            {
              "internalType": "uint256",
              "name": "maxHealth",
              "type": "uint256"
            },
            {
              "internalType": "uint256",
              "name": "attackDamage",
              "type": "uint256"
            }
          ],
          "internalType": "struct myEpicGame.BigBoss",
          "name": "",
          "type": "tuple"
        }
      ],
      "stateMutability": "view",
      "type": "function"
    },
    {
      "inputs": [
        {
          "internalType": "address",
          "name": "owner",
          "type": "address"
        },
        {
          "internalType": "address",
          "name": "operator",
          "type": "address"
        }
      ],
      "name": "isApprovedForAll",
      "outputs": [
        {
          "internalType": "bool",
          "name": "",
          "type": "bool"
        }
      ],
      "stateMutability": "view",
      "type": "function"
    },
    {
      "inputs": [
        {
          "internalType": "uint256",
          "name": "_characterIndex",
          "type": "uint256"
        }
      ],
      "name": "mintCharacterNFT",
      "outputs": [],
      "stateMutability": "nonpayable",
      "type": "function"
    },
    {
      "inputs": [],
      "name": "name",
      "outputs": [
        {
          "internalType": "string",
          "name": "",
          "type": "string"
        }
      ],
      "stateMutability": "view",
      "type": "function"
    },
    {
      "inputs": [
        {
          "internalType": "uint256",
          "name": "",
          "type": "uint256"
        }
      ],
      "name": "nftHolderAttributes",
      "outputs": [
        {
          "internalType": "uint256",
          "name": "characterIndex",
          "type": "uint256"
        },
        {
          "internalType": "string",
          "name": "name",
          "type": "string"
        },
        {
          "internalType": "string",
          "name": "imageURI",
          "type": "string"
        },
        {
          "internalType": "uint256",
          "name": "health",
          "type": "uint256"
        },
        {
          "internalType": "uint256",
          "name": "maxHealth",
          "type": "uint256"
        },
        {
          "internalType": "uint256",
          "name": "attackDamage",
          "type": "uint256"
        }
      ],
      "stateMutability": "view",
      "type": "function"
    },
    {
      "inputs": [
        {
          "internalType": "address",
          "name": "",
          "type": "address"
        }
      ],
      "name": "nftHolders",
      "outputs": [
        {
          "internalType": "uint256",
          "name": "",
          "type": "uint256"
        }
      ],
      "stateMutability": "view",
      "type": "function"
    },
    {
      "inputs": [
        {
          "internalType": "uint256",
          "name": "tokenId",
          "type": "uint256"
        }
      ],
      "name": "ownerOf",
      "outputs": [
        {
          "internalType": "address",
          "name": "",
          "type": "address"
        }
      ],
      "stateMutability": "view",
      "type": "function"
    },
    {
      "inputs": [
        {
          "internalType": "address",
          "name": "from",
          "type": "address"
        },
        {
          "internalType": "address",
          "name": "to",
          "type": "address"
        },
        {
          "internalType": "uint256",
          "name": "tokenId",
          "type": "uint256"
        }
      ],
      "name": "safeTransferFrom",
      "outputs": [],
      "stateMutability": "nonpayable",
      "type": "function"
    },
    {
      "inputs": [
        {
          "internalType": "address",
          "name": "from",
          "type": "address"
        },
        {
          "internalType": "address",
          "name": "to",
          "type": "address"
        },
        {
          "internalType": "uint256",
          "name": "tokenId",
          "type": "uint256"
        },
        {
          "internalType": "bytes",
          "name": "_data",
          "type": "bytes"
        }
      ],
      "name": "safeTransferFrom",
      "outputs": [],
      "stateMutability": "nonpayable",
      "type": "function"
    },
    {
      "inputs": [
        {
          "internalType": "address",
          "name": "operator",
          "type": "address"
        },
        {
          "internalType": "bool",
          "name": "approved",
          "type": "bool"
        }
      ],
      "name": "setApprovalForAll",
      "outputs": [],
      "stateMutability": "nonpayable",
      "type": "function"
    },
    {
      "inputs": [
        {
          "internalType": "bytes4",
          "name": "interfaceId",
          "type": "bytes4"
        }
      ],
      "name": "supportsInterface",
      "outputs": [
        {
          "internalType": "bool",
          "name": "",
          "type": "bool"
        }
      ],
      "stateMutability": "view",
      "type": "function"
    },
    {
      "inputs": [],
      "name": "symbol",
      "outputs": [
        {
          "internalType": "string",
          "name": "",
          "type": "string"
        }
      ],
      "stateMutability": "view",
      "type": "function"
    },
    {
      "inputs": [
        {
          "internalType": "uint256",
          "name": "_tokenId",
          "type": "uint256"
        }
      ],
      "name": "tokenURI",
      "outputs": [
        {
          "internalType": "string",
          "name": "",
          "type": "string"
        }
      ],
      "stateMutability": "view",
      "type": "function"
    },
    {
      "inputs": [
        {
          "internalType": "address",
          "name": "from",
          "type": "address"
        },
        {
          "internalType": "address",
          "name": "to",
          "type": "address"
        },
        {
          "internalType": "uint256",
          "name": "tokenId",
          "type": "uint256"
        }
      ],
      "name": "transferFrom",
      "outputs": [],
      "stateMutability": "nonpayable",
      "type": "function"
    }
  ],
  "bytecode": "0x60806040523480156200001157600080fd5b5060405162005fbc38038062005fbc833981810160405281019062000037919062000c42565b6040518060400160405280600981526020017f447275674c6f72647300000000000000000000000000000000000000000000008152506040518060400160405280600481526020017f44524c44000000000000000000000000000000000000000000000000000000008152508160009080519060200190620000bb929190620009aa565b508060019080519060200190620000d4929190620009aa565b5050506200010660405180606001604052806025815260200162005eb4602591396200081c60201b62001ed81760201c565b6040518060a0016040528085815260200184815260200183815260200183815260200182815250600660008201518160000190805190602001906200014d929190620009aa565b5060208201518160010190805190602001906200016c929190620009aa565b50604082015181600201556060820151816003015560808201518160040155905050620001bd60405180606001604052806037815260200162005ed9603791396200081c60201b62001ed81760201c565b6200031e60405180606001604052806032815260200162005f8a6032913960066000018054620001ed9062000fe9565b80601f01602080910402602001604051908101604052809291908181526020018280546200021b9062000fe9565b80156200026c5780601f1062000240576101008083540402835291602001916200026c565b820191906000526020600020905b8154815290600101906020018083116200024e57829003601f168201915b505050505060066002015460066001018054620002899062000fe9565b80601f0160208091040260200160405190810160405280929190818152602001828054620002b79062000fe9565b8015620003085780601f10620002dc5761010080835404028352916020019162000308565b820191906000526020600020905b815481529060010190602001808311620002ea57829003601f168201915b5050505050620008bf60201b62001f711760201c565b6200034d60405180606001604052806037815260200162005ed9603791396200081c60201b62001ed81760201c565b60005b8851811015620007f657600c6040518060c001604052808381526020018b8481518110620003a7577f4e487b7100000000000000000000000000000000000000000000000000000000600052603260045260246000fd5b602002602001015181526020018a8481518110620003ee577f4e487b7100000000000000000000000000000000000000000000000000000000600052603260045260246000fd5b6020026020010151815260200189848151811062000435577f4e487b7100000000000000000000000000000000000000000000000000000000600052603260045260246000fd5b602002602001015181526020018984815181106200047c577f4e487b7100000000000000000000000000000000000000000000000000000000600052603260045260246000fd5b60200260200101518152602001888481518110620004c3577f4e487b7100000000000000000000000000000000000000000000000000000000600052603260045260246000fd5b602002602001015181525090806001815401808255809150506001900390600052602060002090600602016000909190919091506000820151816000015560208201518160010190805190602001906200051f929190620009aa565b5060408201518160020190805190602001906200053e929190620009aa565b50606082015181600301556080820151816004015560a0820151816005015550506000600c82815481106200059c577f4e487b7100000000000000000000000000000000000000000000000000000000600052603260045260246000fd5b90600052602060002090600602016040518060c001604052908160008201548152602001600182018054620005d19062000fe9565b80601f0160208091040260200160405190810160405280929190818152602001828054620005ff9062000fe9565b8015620006505780601f10620006245761010080835404028352916020019162000650565b820191906000526020600020905b8154815290600101906020018083116200063257829003601f168201915b505050505081526020016002820180546200066b9062000fe9565b80601f0160208091040260200160405190810160405280929190818152602001828054620006999062000fe9565b8015620006ea5780601f10620006be57610100808354040283529160200191620006ea565b820191906000526020600020905b815481529060010190602001808311620006cc57829003601f168201915b50505050508152602001600382015481526020016004820154815260200160058201548152505090506200074260405180608001604052806046815260200162005e6e604691396200081c60201b62001ed81760201c565b6200078060405180606001604052806029815260200162005f6160299139826020015183606001518460400151620008bf60201b62001f711760201c565b620007af60405180608001604052806051815260200162005f10605191396200081c60201b62001ed81760201c565b620007de60405180608001604052806046815260200162005e6e604691396200081c60201b62001ed81760201c565b50600181620007ee919062000f4c565b905062000350565b506200080e600b6200096b60201b620020131760201c565b50505050505050506200110d565b620008bc8160405160240162000833919062000ded565b6040516020818303038152906040527f41304fac000000000000000000000000000000000000000000000000000000007bffffffffffffffffffffffffffffffffffffffffffffffffffffffff19166020820180517bffffffffffffffffffffffffffffffffffffffffffffffffffffffff83818316178352505050506200098160201b60201c565b50565b6200096584848484604051602401620008dc949392919062000e11565b6040516020818303038152906040527f8d142cdd000000000000000000000000000000000000000000000000000000007bffffffffffffffffffffffffffffffffffffffffffffffffffffffff19166020820180517bffffffffffffffffffffffffffffffffffffffffffffffffffffffff83818316178352505050506200098160201b60201c565b50505050565b6001816000016000828254019250508190555050565b60008151905060006a636f6e736f6c652e6c6f679050602083016000808483855afa5050505050565b828054620009b89062000fe9565b90600052602060002090601f016020900481019282620009dc576000855562000a28565b82601f10620009f757805160ff191683800117855562000a28565b8280016001018555821562000a28579182015b8281111562000a2757825182559160200191906001019062000a0a565b5b50905062000a37919062000a3b565b5090565b5b8082111562000a5657600081600090555060010162000a3c565b5090565b600062000a7162000a6b8462000e9c565b62000e73565b9050808382526020820190508285602086028201111562000a9157600080fd5b60005b8581101562000ae057815167ffffffffffffffff81111562000ab557600080fd5b80860162000ac4898262000bfe565b8552602085019450602084019350505060018101905062000a94565b5050509392505050565b600062000b0162000afb8462000ecb565b62000e73565b9050808382526020820190508285602086028201111562000b2157600080fd5b60005b8581101562000b55578162000b3a888262000c2b565b84526020840193506020830192505060018101905062000b24565b5050509392505050565b600062000b7662000b708462000efa565b62000e73565b90508281526020810184848401111562000b8f57600080fd5b62000b9c84828562000fb3565b509392505050565b600082601f83011262000bb657600080fd5b815162000bc884826020860162000a5a565b91505092915050565b600082601f83011262000be357600080fd5b815162000bf584826020860162000aea565b91505092915050565b600082601f83011262000c1057600080fd5b815162000c2284826020860162000b5f565b91505092915050565b60008151905062000c3c81620010f3565b92915050565b600080600080600080600080610100898b03121562000c6057600080fd5b600089015167ffffffffffffffff81111562000c7b57600080fd5b62000c898b828c0162000ba4565b985050602089015167ffffffffffffffff81111562000ca757600080fd5b62000cb58b828c0162000ba4565b975050604089015167ffffffffffffffff81111562000cd357600080fd5b62000ce18b828c0162000bd1565b965050606089015167ffffffffffffffff81111562000cff57600080fd5b62000d0d8b828c0162000bd1565b955050608089015167ffffffffffffffff81111562000d2b57600080fd5b62000d398b828c0162000bfe565b94505060a089015167ffffffffffffffff81111562000d5757600080fd5b62000d658b828c0162000bfe565b93505060c062000d788b828c0162000c2b565b92505060e062000d8b8b828c0162000c2b565b9150509295985092959890939650565b600062000da88262000f30565b62000db4818562000f3b565b935062000dc681856020860162000fb3565b62000dd181620010e2565b840191505092915050565b62000de78162000fa9565b82525050565b6000602082019050818103600083015262000e09818462000d9b565b905092915050565b6000608082019050818103600083015262000e2d818762000d9b565b9050818103602083015262000e43818662000d9b565b905062000e54604083018562000ddc565b818103606083015262000e68818462000d9b565b905095945050505050565b600062000e7f62000e92565b905062000e8d82826200101f565b919050565b6000604051905090565b600067ffffffffffffffff82111562000eba5762000eb9620010b3565b5b602082029050602081019050919050565b600067ffffffffffffffff82111562000ee95762000ee8620010b3565b5b602082029050602081019050919050565b600067ffffffffffffffff82111562000f185762000f17620010b3565b5b62000f2382620010e2565b9050602081019050919050565b600081519050919050565b600082825260208201905092915050565b600062000f598262000fa9565b915062000f668362000fa9565b9250827fffffffffffffffffffffffffffffffffffffffffffffffffffffffffffffffff0382111562000f9e5762000f9d62001055565b5b828201905092915050565b6000819050919050565b60005b8381101562000fd357808201518184015260208101905062000fb6565b8381111562000fe3576000848401525b50505050565b600060028204905060018216806200100257607f821691505b6020821081141562001019576200101862001084565b5b50919050565b6200102a82620010e2565b810181811067ffffffffffffffff821117156200104c576200104b620010b3565b5b80604052505050565b7f4e487b7100000000000000000000000000000000000000000000000000000000600052601160045260246000fd5b7f4e487b7100000000000000000000000000000000000000000000000000000000600052602260045260246000fd5b7f4e487b7100000000000000000000000000000000000000000000000000000000600052604160045260246000fd5b6000601f19601f8301169050919050565b620010fe8162000fa9565b81146200110a57600080fd5b50565b614d51806200111d6000396000f3fe608060405234801561001057600080fd5b50600436106101375760003560e01c806395d89b41116100b8578063b953084e1161007c578063b953084e14610369578063c87b56dd14610387578063c8cf27f4146103b7578063d4f24c5b146103d5578063e985e9c5146103df578063f8b81ef71461040f57610137565b806395d89b41146102bc57806398da4c95146102da578063a22cb4651461030f578063a9c326791461032b578063b88d4fde1461034d57610137565b806323b872dd116100ff57806323b872dd146101f457806342842e0e146102105780636352211e1461022c57806370a082311461025c5780637df124a11461028c57610137565b806301ffc9a71461013c5780630665f9611461016c57806306fdde031461018a578063081812fc146101a8578063095ea7b3146101d8575b600080fd5b610156600480360381019061015191906133be565b61042b565b6040516101639190613c23565b60405180910390f35b61017461050d565b6040516101819190613fe6565b60405180910390f35b610192610669565b60405161019f9190613c3e565b60405180910390f35b6101c260048036038101906101bd9190613410565b6106fb565b6040516101cf9190613b63565b60405180910390f35b6101f260048036038101906101ed9190613382565b610780565b005b61020e6004803603810190610209919061327c565b610898565b005b61022a6004803603810190610225919061327c565b6108f8565b005b61024660048036038101906102419190613410565b610918565b6040516102539190613b63565b60405180910390f35b61027660048036038101906102719190613217565b6109ca565b604051610283919061402a565b60405180910390f35b6102a660048036038101906102a19190613217565b610a82565b6040516102b3919061402a565b60405180910390f35b6102c4610a9a565b6040516102d19190613c3e565b60405180910390f35b6102f460048036038101906102ef9190613410565b610b2c565b60405161030696959493929190614045565b60405180910390f35b61032960048036038101906103249190613346565b610c78565b005b610333610c8e565b604051610344959493929190613d67565b60405180910390f35b610367600480360381019061036291906132cb565b610dc2565b005b610371610e24565b60405161037e9190613c01565b60405180910390f35b6103a1600480360381019061039c9190613410565b610fcf565b6040516103ae9190613c3e565b60405180910390f35b6103bf6111ea565b6040516103cc9190614008565b60405180910390f35b6103dd6113c2565b005b6103f960048036038101906103f49190613240565b611a0e565b6040516104069190613c23565b60405180910390f35b61042960048036038101906104249190613410565b611aa2565b005b60007f80ac58cd000000000000000000000000000000000000000000000000000000007bffffffffffffffffffffffffffffffffffffffffffffffffffffffff1916827bffffffffffffffffffffffffffffffffffffffffffffffffffffffff191614806104f657507f5b5e139f000000000000000000000000000000000000000000000000000000007bffffffffffffffffffffffffffffffffffffffffffffffffffffffff1916827bffffffffffffffffffffffffffffffffffffffffffffffffffffffff1916145b80610506575061050582612029565b5b9050919050565b61051561303e565b60066040518060a00160405290816000820180546105329061438b565b80601f016020809104026020016040519081016040528092919081815260200182805461055e9061438b565b80156105ab5780601f10610580576101008083540402835291602001916105ab565b820191906000526020600020905b81548152906001019060200180831161058e57829003601f168201915b505050505081526020016001820180546105c49061438b565b80601f01602080910402602001604051908101604052809291908181526020018280546105f09061438b565b801561063d5780601f106106125761010080835404028352916020019161063d565b820191906000526020600020905b81548152906001019060200180831161062057829003601f168201915b505050505081526020016002820154815260200160038201548152602001600482015481525050905090565b6060600080546106789061438b565b80601f01602080910402602001604051908101604052809291908181526020018280546106a49061438b565b80156106f15780601f106106c6576101008083540402835291602001916106f1565b820191906000526020600020905b8154815290600101906020018083116106d457829003601f168201915b5050505050905090565b600061070682612093565b610745576040517f08c379a000000000000000000000000000000000000000000000000000000000815260040161073c90613f66565b60405180910390fd5b6004600083815260200190815260200160002060009054906101000a900473ffffffffffffffffffffffffffffffffffffffff169050919050565b600061078b82610918565b90508073ffffffffffffffffffffffffffffffffffffffff168373ffffffffffffffffffffffffffffffffffffffff1614156107fc576040517f08c379a00000000000000000000000000000000000000000000000000000000081526004016107f390613fa6565b60405180910390fd5b8073ffffffffffffffffffffffffffffffffffffffff1661081b6120ff565b73ffffffffffffffffffffffffffffffffffffffff16148061084a5750610849816108446120ff565b611a0e565b5b610889576040517f08c379a000000000000000000000000000000000000000000000000000000000815260040161088090613ee6565b60405180910390fd5b6108938383612107565b505050565b6108a96108a36120ff565b826121c0565b6108e8576040517f08c379a00000000000000000000000000000000000000000000000000000000081526004016108df90613fc6565b60405180910390fd5b6108f383838361229e565b505050565b61091383838360405180602001604052806000815250610dc2565b505050565b6000806002600084815260200190815260200160002060009054906101000a900473ffffffffffffffffffffffffffffffffffffffff169050600073ffffffffffffffffffffffffffffffffffffffff168173ffffffffffffffffffffffffffffffffffffffff1614156109c1576040517f08c379a00000000000000000000000000000000000000000000000000000000081526004016109b890613f26565b60405180910390fd5b80915050919050565b60008073ffffffffffffffffffffffffffffffffffffffff168273ffffffffffffffffffffffffffffffffffffffff161415610a3b576040517f08c379a0000000000000000000000000000000000000000000000000000000008152600401610a3290613f06565b60405180910390fd5b600360008373ffffffffffffffffffffffffffffffffffffffff1673ffffffffffffffffffffffffffffffffffffffff168152602001908152602001600020549050919050565b600e6020528060005260406000206000915090505481565b606060018054610aa99061438b565b80601f0160208091040260200160405190810160405280929190818152602001828054610ad59061438b565b8015610b225780601f10610af757610100808354040283529160200191610b22565b820191906000526020600020905b815481529060010190602001808311610b0557829003601f168201915b5050505050905090565b600d602052806000526040600020600091509050806000015490806001018054610b559061438b565b80601f0160208091040260200160405190810160405280929190818152602001828054610b819061438b565b8015610bce5780601f10610ba357610100808354040283529160200191610bce565b820191906000526020600020905b815481529060010190602001808311610bb157829003601f168201915b505050505090806002018054610be39061438b565b80601f0160208091040260200160405190810160405280929190818152602001828054610c0f9061438b565b8015610c5c5780601f10610c3157610100808354040283529160200191610c5c565b820191906000526020600020905b815481529060010190602001808311610c3f57829003601f168201915b5050505050908060030154908060040154908060050154905086565b610c8a610c836120ff565b83836124fa565b5050565b6006806000018054610c9f9061438b565b80601f0160208091040260200160405190810160405280929190818152602001828054610ccb9061438b565b8015610d185780601f10610ced57610100808354040283529160200191610d18565b820191906000526020600020905b815481529060010190602001808311610cfb57829003601f168201915b505050505090806001018054610d2d9061438b565b80601f0160208091040260200160405190810160405280929190818152602001828054610d599061438b565b8015610da65780601f10610d7b57610100808354040283529160200191610da6565b820191906000526020600020905b815481529060010190602001808311610d8957829003601f168201915b5050505050908060020154908060030154908060040154905085565b610dd3610dcd6120ff565b836121c0565b610e12576040517f08c379a0000000000000000000000000000000000000000000000000000000008152600401610e0990613fc6565b60405180910390fd5b610e1e84848484612667565b50505050565b6060600c805480602002602001604051908101604052809291908181526020016000905b82821015610fc657838290600052602060002090600602016040518060c001604052908160008201548152602001600182018054610e859061438b565b80601f0160208091040260200160405190810160405280929190818152602001828054610eb19061438b565b8015610efe5780601f10610ed357610100808354040283529160200191610efe565b820191906000526020600020905b815481529060010190602001808311610ee157829003601f168201915b50505050508152602001600282018054610f179061438b565b80601f0160208091040260200160405190810160405280929190818152602001828054610f439061438b565b8015610f905780601f10610f6557610100808354040283529160200191610f90565b820191906000526020600020905b815481529060010190602001808311610f7357829003601f168201915b50505050508152602001600382015481526020016004820154815260200160058201548152505081526020019060010190610e48565b50505050905090565b60606000600d60008481526020019081526020016000206040518060c00160405290816000820154815260200160018201805461100b9061438b565b80601f01602080910402602001604051908101604052809291908181526020018280546110379061438b565b80156110845780601f1061105957610100808354040283529160200191611084565b820191906000526020600020905b81548152906001019060200180831161106757829003601f168201915b5050505050815260200160028201805461109d9061438b565b80601f01602080910402602001604051908101604052809291908181526020018280546110c99061438b565b80156111165780601f106110eb57610100808354040283529160200191611116565b820191906000526020600020905b8154815290600101906020018083116110f957829003601f168201915b5050505050815260200160038201548152602001600482015481526020016005820154815250509050600061114e82606001516126c3565b9050600061115f83608001516126c3565b905060006111708460a001516126c3565b905060006111b68560200151611185896126c3565b87604001518787876040516020016111a296959493929190613a9c565b604051602081830303815290604052612870565b90506000816040516020016111cb9190613b41565b6040516020818303038152906040529050809650505050505050919050565b6111f261306d565b6000600e60003373ffffffffffffffffffffffffffffffffffffffff1673ffffffffffffffffffffffffffffffffffffffff16815260200190815260200160002054905060008111156113b157600d60008281526020019081526020016000206040518060c0016040529081600082015481526020016001820180546112779061438b565b80601f01602080910402602001604051908101604052809291908181526020018280546112a39061438b565b80156112f05780601f106112c5576101008083540402835291602001916112f0565b820191906000526020600020905b8154815290600101906020018083116112d357829003601f168201915b505050505081526020016002820180546113099061438b565b80601f01602080910402602001604051908101604052809291908181526020018280546113359061438b565b80156113825780601f1061135757610100808354040283529160200191611382565b820191906000526020600020905b81548152906001019060200180831161136557829003601f168201915b5050505050815260200160038201548152602001600482015481526020016005820154815250509150506113bf565b6113b961306d565b80925050505b90565b6000600e60003373ffffffffffffffffffffffffffffffffffffffff1673ffffffffffffffffffffffffffffffffffffffff1681526020019081526020016000205490506000600d600083815260200190815260200160002090506114d5604051806060016040528060328152602001614bc7603291398260010180546114489061438b565b80601f01602080910402602001604051908101604052809291908181526020018280546114749061438b565b80156114c15780601f10611496576101008083540402835291602001916114c1565b820191906000526020600020905b8154815290600101906020018083116114a457829003601f168201915b505050505083600301548460050154612a2e565b6116176040518060600160405280603f8152602001614bf9603f9139600660000180546115019061438b565b80601f016020809104026020016040519081016040528092919081815260200182805461152d9061438b565b801561157a5780601f1061154f5761010080835404028352916020019161157a565b820191906000526020600020905b81548152906001019060200180831161155d57829003601f168201915b505050505083600101805461158e9061438b565b80601f01602080910402602001604051908101604052809291908181526020018280546115ba9061438b565b80156116075780601f106115dc57610100808354040283529160200191611607565b820191906000526020600020905b8154815290600101906020018083116115ea57829003601f168201915b5050505050600660020154612ad0565b6116386040518060600160405280602d8152602001614cef602d9139611ed8565b600081600301541161167f576040517f08c379a000000000000000000000000000000000000000000000000000000000815260040161167690613e06565b60405180910390fd5b6000600660020154116116c7576040517f08c379a00000000000000000000000000000000000000000000000000000000081526004016116be90613e66565b60405180910390fd5b806005015460066002015410156116e8576000600660020181905550611707565b80600501546006600201546116fd91906142a1565b6006600201819055505b600660040154816003015410156117275760008160030181905550611745565b600660040154816003015461173c91906142a1565b81600301819055505b611887604051806060016040528060238152602001614c78602391398260010180546117709061438b565b80601f016020809104026020016040519081016040528092919081815260200182805461179c9061438b565b80156117e95780601f106117be576101008083540402835291602001916117e9565b820191906000526020600020905b8154815290600101906020018083116117cc57829003601f168201915b5050505050600660000180546117fe9061438b565b80601f016020809104026020016040519081016040528092919081815260200182805461182a9061438b565b80156118775780601f1061184c57610100808354040283529160200191611877565b820191906000526020600020905b81548152906001019060200180831161185a57829003601f168201915b5050505050600660020154612ad0565b6119c8604051806060016040528060268152602001614c9b60269139600660000180546118b39061438b565b80601f01602080910402602001604051908101604052809291908181526020018280546118df9061438b565b801561192c5780601f106119015761010080835404028352916020019161192c565b820191906000526020600020905b81548152906001019060200180831161190f57829003601f168201915b50505050508360010180546119409061438b565b80601f016020809104026020016040519081016040528092919081815260200182805461196c9061438b565b80156119b95780601f1061198e576101008083540402835291602001916119b9565b820191906000526020600020905b81548152906001019060200180831161199c57829003601f168201915b50505050508460030154612ad0565b7f838ab28464562786a6c4ab2311964b82fa60bd9b14aa7e856af1f3f18d41a4146006600201548260030154604051611a029291906140b4565b60405180910390a15050565b6000600560008473ffffffffffffffffffffffffffffffffffffffff1673ffffffffffffffffffffffffffffffffffffffff16815260200190815260200160002060008373ffffffffffffffffffffffffffffffffffffffff1673ffffffffffffffffffffffffffffffffffffffff16815260200190815260200160002060009054906101000a900460ff16905092915050565b6000611aae600b612b72565b9050611aba3382612b80565b6040518060c00160405280838152602001600c8481548110611b05577f4e487b7100000000000000000000000000000000000000000000000000000000600052603260045260246000fd5b90600052602060002090600602016001018054611b219061438b565b80601f0160208091040260200160405190810160405280929190818152602001828054611b4d9061438b565b8015611b9a5780601f10611b6f57610100808354040283529160200191611b9a565b820191906000526020600020905b815481529060010190602001808311611b7d57829003601f168201915b50505050508152602001600c8481548110611bde577f4e487b7100000000000000000000000000000000000000000000000000000000600052603260045260246000fd5b90600052602060002090600602016002018054611bfa9061438b565b80601f0160208091040260200160405190810160405280929190818152602001828054611c269061438b565b8015611c735780601f10611c4857610100808354040283529160200191611c73565b820191906000526020600020905b815481529060010190602001808311611c5657829003601f168201915b50505050508152602001600c8481548110611cb7577f4e487b7100000000000000000000000000000000000000000000000000000000600052603260045260246000fd5b9060005260206000209060060201600301548152602001600c8481548110611d08577f4e487b7100000000000000000000000000000000000000000000000000000000600052603260045260246000fd5b9060005260206000209060060201600401548152602001600c8481548110611d59577f4e487b7100000000000000000000000000000000000000000000000000000000600052603260045260246000fd5b906000526020600020906006020160050154815250600d6000838152602001908152602001600020600082015181600001556020820151816001019080519060200190611da79291906130a3565b506040820151816002019080519060200190611dc49291906130a3565b50606082015181600301556080820151816004015560a08201518160050155905050611e076040518060600160405280602d8152602001614cef602d9139611ed8565b611e2a6040518060600160405280602e8152602001614cc1602e91398284612b9e565b611e4b6040518060600160405280602d8152602001614cef602d9139611ed8565b80600e60003373ffffffffffffffffffffffffffffffffffffffff1673ffffffffffffffffffffffffffffffffffffffff16815260200190815260200160002081905550611e99600b612013565b7f4bc303fd457a97b4691b9af582ce71868a3d258638c8d4f8c60988a0f0bfb8cd338284604051611ecc93929190613bca565b60405180910390a15050565b611f6e81604051602401611eec9190613c3e565b6040516020818303038152906040527f41304fac000000000000000000000000000000000000000000000000000000007bffffffffffffffffffffffffffffffffffffffffffffffffffffffff19166020820180517bffffffffffffffffffffffffffffffffffffffffffffffffffffffff8381831617835250505050612c3d565b50565b61200d84848484604051602401611f8b9493929190613cba565b6040516020818303038152906040527f8d142cdd000000000000000000000000000000000000000000000000000000007bffffffffffffffffffffffffffffffffffffffffffffffffffffffff19166020820180517bffffffffffffffffffffffffffffffffffffffffffffffffffffffff8381831617835250505050612c3d565b50505050565b6001816000016000828254019250508190555050565b60007f01ffc9a7000000000000000000000000000000000000000000000000000000007bffffffffffffffffffffffffffffffffffffffffffffffffffffffff1916827bffffffffffffffffffffffffffffffffffffffffffffffffffffffff1916149050919050565b60008073ffffffffffffffffffffffffffffffffffffffff166002600084815260200190815260200160002060009054906101000a900473ffffffffffffffffffffffffffffffffffffffff1673ffffffffffffffffffffffffffffffffffffffff1614159050919050565b600033905090565b816004600083815260200190815260200160002060006101000a81548173ffffffffffffffffffffffffffffffffffffffff021916908373ffffffffffffffffffffffffffffffffffffffff160217905550808273ffffffffffffffffffffffffffffffffffffffff1661217a83610918565b73ffffffffffffffffffffffffffffffffffffffff167f8c5be1e5ebec7d5bd14f71427d1e84f3dd0314c0f7b2291e5b200ac8c7c3b92560405160405180910390a45050565b60006121cb82612093565b61220a576040517f08c379a000000000000000000000000000000000000000000000000000000000815260040161220190613ec6565b60405180910390fd5b600061221583610918565b90508073ffffffffffffffffffffffffffffffffffffffff168473ffffffffffffffffffffffffffffffffffffffff16148061228457508373ffffffffffffffffffffffffffffffffffffffff1661226c846106fb565b73ffffffffffffffffffffffffffffffffffffffff16145b8061229557506122948185611a0e565b5b91505092915050565b8273ffffffffffffffffffffffffffffffffffffffff166122be82610918565b73ffffffffffffffffffffffffffffffffffffffff1614612314576040517f08c379a000000000000000000000000000000000000000000000000000000000815260040161230b90613f86565b60405180910390fd5b600073ffffffffffffffffffffffffffffffffffffffff168273ffffffffffffffffffffffffffffffffffffffff161415612384576040517f08c379a000000000000000000000000000000000000000000000000000000000815260040161237b90613e86565b60405180910390fd5b61238f838383612c66565b61239a600082612107565b6001600360008573ffffffffffffffffffffffffffffffffffffffff1673ffffffffffffffffffffffffffffffffffffffff16815260200190815260200160002060008282546123ea91906142a1565b925050819055506001600360008473ffffffffffffffffffffffffffffffffffffffff1673ffffffffffffffffffffffffffffffffffffffff168152602001908152602001600020600082825461244191906141c0565b92505081905550816002600083815260200190815260200160002060006101000a81548173ffffffffffffffffffffffffffffffffffffffff021916908373ffffffffffffffffffffffffffffffffffffffff160217905550808273ffffffffffffffffffffffffffffffffffffffff168473ffffffffffffffffffffffffffffffffffffffff167fddf252ad1be2c89b69c2b068fc378daa952ba7f163c4a11628f55a4df523b3ef60405160405180910390a4505050565b8173ffffffffffffffffffffffffffffffffffffffff168373ffffffffffffffffffffffffffffffffffffffff161415612569576040517f08c379a000000000000000000000000000000000000000000000000000000000815260040161256090613ea6565b60405180910390fd5b80600560008573ffffffffffffffffffffffffffffffffffffffff1673ffffffffffffffffffffffffffffffffffffffff16815260200190815260200160002060008473ffffffffffffffffffffffffffffffffffffffff1673ffffffffffffffffffffffffffffffffffffffff16815260200190815260200160002060006101000a81548160ff0219169083151502179055508173ffffffffffffffffffffffffffffffffffffffff168373ffffffffffffffffffffffffffffffffffffffff167f17307eab39ab6107e8899845ad3d59bd9653f200f220920489ca2b5937696c318360405161265a9190613c23565b60405180910390a3505050565b61267284848461229e565b61267e84848484612c6b565b6126bd576040517f08c379a00000000000000000000000000000000000000000000000000000000081526004016126b490613e26565b60405180910390fd5b50505050565b6060600082141561270b576040518060400160405280600181526020017f3000000000000000000000000000000000000000000000000000000000000000815250905061286b565b600082905060005b6000821461273d578080612726906143ee565b915050600a826127369190614216565b9150612713565b60008167ffffffffffffffff81111561277f577f4e487b7100000000000000000000000000000000000000000000000000000000600052604160045260246000fd5b6040519080825280601f01601f1916602001820160405280156127b15781602001600182028036833780820191505090505b5090505b60008514612864576001826127ca91906142a1565b9150600a856127d99190614437565b60306127e591906141c0565b60f81b818381518110612821577f4e487b7100000000000000000000000000000000000000000000000000000000600052603260045260246000fd5b60200101907effffffffffffffffffffffffffffffffffffffffffffffffffffffffffffff1916908160001a905350600a8561285d9190614216565b94506127b5565b8093505050505b919050565b606060008251905060008114156128995760405180602001604052806000815250915050612a29565b600060036002836128aa91906141c0565b6128b49190614216565b60046128c09190614247565b905060006020826128d191906141c0565b67ffffffffffffffff811115612910577f4e487b7100000000000000000000000000000000000000000000000000000000600052604160045260246000fd5b6040519080825280601f01601f1916602001820160405280156129425781602001600182028036833780820191505090505b5090506000604051806060016040528060408152602001614c38604091399050600181016020830160005b868110156129e65760038101905062ffffff818a015116603f8160121c168401518060081b905060ff603f83600c1c1686015116810190508060081b905060ff603f8360061c1686015116810190508060081b905060ff603f831686015116810190508060e01b9050808452600484019350505061296d565b506003860660018114612a005760028114612a1057612a1b565b613d3d60f01b6002830352612a1b565b603d60f81b60018303525b508484525050819450505050505b919050565b612aca84848484604051602401612a489493929190613d14565b6040516020818303038152906040527fd5cf17d0000000000000000000000000000000000000000000000000000000007bffffffffffffffffffffffffffffffffffffffffffffffffffffffff19166020820180517bffffffffffffffffffffffffffffffffffffffffffffffffffffffff8381831617835250505050612c3d565b50505050565b612b6c84848484604051602401612aea9493929190613c60565b6040516020818303038152906040527f9fd009f5000000000000000000000000000000000000000000000000000000007bffffffffffffffffffffffffffffffffffffffffffffffffffffffff19166020820180517bffffffffffffffffffffffffffffffffffffffffffffffffffffffff8381831617835250505050612c3d565b50505050565b600081600001549050919050565b612b9a828260405180602001604052806000815250612e02565b5050565b612c38838383604051602401612bb693929190613dc8565b6040516020818303038152906040527f969cdd03000000000000000000000000000000000000000000000000000000007bffffffffffffffffffffffffffffffffffffffffffffffffffffffff19166020820180517bffffffffffffffffffffffffffffffffffffffffffffffffffffffff8381831617835250505050612c3d565b505050565b60008151905060006a636f6e736f6c652e6c6f679050602083016000808483855afa5050505050565b505050565b6000612c8c8473ffffffffffffffffffffffffffffffffffffffff16612e5d565b15612df5578373ffffffffffffffffffffffffffffffffffffffff1663150b7a02612cb56120ff565b8786866040518563ffffffff1660e01b8152600401612cd79493929190613b7e565b602060405180830381600087803b158015612cf157600080fd5b505af1925050508015612d2257506040513d601f19601f82011682018060405250810190612d1f91906133e7565b60015b612da5573d8060008114612d52576040519150601f19603f3d011682016040523d82523d6000602084013e612d57565b606091505b50600081511415612d9d576040517f08c379a0000000000000000000000000000000000000000000000000000000008152600401612d9490613e26565b60405180910390fd5b805181602001fd5b63150b7a0260e01b7bffffffffffffffffffffffffffffffffffffffffffffffffffffffff1916817bffffffffffffffffffffffffffffffffffffffffffffffffffffffff191614915050612dfa565b600190505b949350505050565b612e0c8383612e70565b612e196000848484612c6b565b612e58576040517f08c379a0000000000000000000000000000000000000000000000000000000008152600401612e4f90613e26565b60405180910390fd5b505050565b600080823b905060008111915050919050565b600073ffffffffffffffffffffffffffffffffffffffff168273ffffffffffffffffffffffffffffffffffffffff161415612ee0576040517f08c379a0000000000000000000000000000000000000000000000000000000008152600401612ed790613f46565b60405180910390fd5b612ee981612093565b15612f29576040517f08c379a0000000000000000000000000000000000000000000000000000000008152600401612f2090613e46565b60405180910390fd5b612f3560008383612c66565b6001600360008473ffffffffffffffffffffffffffffffffffffffff1673ffffffffffffffffffffffffffffffffffffffff1681526020019081526020016000206000828254612f8591906141c0565b92505081905550816002600083815260200190815260200160002060006101000a81548173ffffffffffffffffffffffffffffffffffffffff021916908373ffffffffffffffffffffffffffffffffffffffff160217905550808273ffffffffffffffffffffffffffffffffffffffff16600073ffffffffffffffffffffffffffffffffffffffff167fddf252ad1be2c89b69c2b068fc378daa952ba7f163c4a11628f55a4df523b3ef60405160405180910390a45050565b6040518060a0016040528060608152602001606081526020016000815260200160008152602001600081525090565b6040518060c001604052806000815260200160608152602001606081526020016000815260200160008152602001600081525090565b8280546130af9061438b565b90600052602060002090601f0160209004810192826130d15760008555613118565b82601f106130ea57805160ff1916838001178555613118565b82800160010185558215613118579182015b828111156131175782518255916020019190600101906130fc565b5b5090506131259190613129565b5090565b5b8082111561314257600081600090555060010161312a565b5090565b600061315961315484614102565b6140dd565b90508281526020810184848401111561317157600080fd5b61317c848285614349565b509392505050565b60008135905061319381614b6a565b92915050565b6000813590506131a881614b81565b92915050565b6000813590506131bd81614b98565b92915050565b6000815190506131d281614b98565b92915050565b600082601f8301126131e957600080fd5b81356131f9848260208601613146565b91505092915050565b60008135905061321181614baf565b92915050565b60006020828403121561322957600080fd5b600061323784828501613184565b91505092915050565b6000806040838503121561325357600080fd5b600061326185828601613184565b925050602061327285828601613184565b9150509250929050565b60008060006060848603121561329157600080fd5b600061329f86828701613184565b93505060206132b086828701613184565b92505060406132c186828701613202565b9150509250925092565b600080600080608085870312156132e157600080fd5b60006132ef87828801613184565b945050602061330087828801613184565b935050604061331187828801613202565b925050606085013567ffffffffffffffff81111561332e57600080fd5b61333a878288016131d8565b91505092959194509250565b6000806040838503121561335957600080fd5b600061336785828601613184565b925050602061337885828601613199565b9150509250929050565b6000806040838503121561339557600080fd5b60006133a385828601613184565b92505060206133b485828601613202565b9150509250929050565b6000602082840312156133d057600080fd5b60006133de848285016131ae565b91505092915050565b6000602082840312156133f957600080fd5b6000613407848285016131c3565b91505092915050565b60006020828403121561342257600080fd5b600061343084828501613202565b91505092915050565b6000613445838361395e565b905092915050565b613456816142d5565b82525050565b600061346782614143565b6134718185614171565b93508360208202850161348385614133565b8060005b858110156134bf57848403895281516134a08582613439565b94506134ab83614164565b925060208a01995050600181019050613487565b50829750879550505050505092915050565b6134da816142e7565b82525050565b60006134eb8261414e565b6134f58185614182565b9350613505818560208601614358565b61350e81614524565b840191505092915050565b600061352482614159565b61352e8185614193565b935061353e818560208601614358565b61354781614524565b840191505092915050565b600061355d82614159565b61356781856141a4565b9350613577818560208601614358565b61358081614524565b840191505092915050565b600061359682614159565b6135a081856141b5565b93506135b0818560208601614358565b80840191505092915050565b60006135c9602b836141a4565b91506135d482614535565b604082019050919050565b60006135ec600b836141b5565b91506135f782614584565b600b82019050919050565b600061360f6032836141a4565b915061361a826145ad565b604082019050919050565b6000613632601c836141a4565b915061363d826145fc565b602082019050919050565b60006136556029836141a4565b915061366082614625565b604082019050919050565b6000613678600e836141b5565b915061368382614674565b600e82019050919050565b600061369b6024836141a4565b91506136a68261469d565b604082019050919050565b60006136be6019836141a4565b91506136c9826146ec565b602082019050919050565b60006136e1602c836141a4565b91506136ec82614715565b604082019050919050565b60006137046038836141a4565b915061370f82614764565b604082019050919050565b6000613727602a836141a4565b9150613732826147b3565b604082019050919050565b600061374a6029836141a4565b915061375582614802565b604082019050919050565b600061376d6004836141b5565b915061377882614851565b600482019050919050565b60006137906020836141a4565b915061379b8261487a565b602082019050919050565b60006137b3602c836141a4565b91506137be826148a3565b604082019050919050565b60006137d66029836141a4565b91506137e1826148f2565b604082019050919050565b60006137f9600a836141b5565b915061380482614941565b600a82019050919050565b600061381c6064836141b5565b91506138278261496a565b606482019050919050565b600061383f6021836141a4565b915061384a82614a05565b604082019050919050565b6000613862601d836141b5565b915061386d82614a54565b601d82019050919050565b60006138856031836141a4565b915061389082614a7d565b604082019050919050565b60006138a8603d836141b5565b91506138b382614acc565b603d82019050919050565b60006138cb602d836141b5565b91506138d682614b1b565b602d82019050919050565b600060a08301600083015184820360008601526138fe8282613519565b915050602083015184820360208601526139188282613519565b915050604083015161392d6040860182613a7e565b5060608301516139406060860182613a7e565b5060808301516139536080860182613a7e565b508091505092915050565b600060c0830160008301516139766000860182613a7e565b506020830151848203602086015261398e8282613519565b915050604083015184820360408601526139a88282613519565b91505060608301516139bd6060860182613a7e565b5060808301516139d06080860182613a7e565b5060a08301516139e360a0860182613a7e565b508091505092915050565b600060c083016000830151613a066000860182613a7e565b5060208301518482036020860152613a1e8282613519565b91505060408301518482036040860152613a388282613519565b9150506060830151613a4d6060860182613a7e565b506080830151613a606080860182613a7e565b5060a0830151613a7360a0860182613a7e565b508091505092915050565b613a878161433f565b82525050565b613a968161433f565b82525050565b6000613aa7826137ec565b9150613ab3828961358b565b9150613abe826135df565b9150613aca828861358b565b9150613ad58261380f565b9150613ae1828761358b565b9150613aec8261389b565b9150613af8828661358b565b9150613b038261366b565b9150613b0f828561358b565b9150613b1a826138be565b9150613b26828461358b565b9150613b3182613760565b9150819050979650505050505050565b6000613b4c82613855565b9150613b58828461358b565b915081905092915050565b6000602082019050613b78600083018461344d565b92915050565b6000608082019050613b93600083018761344d565b613ba0602083018661344d565b613bad6040830185613a8d565b8181036060830152613bbf81846134e0565b905095945050505050565b6000606082019050613bdf600083018661344d565b613bec6020830185613a8d565b613bf96040830184613a8d565b949350505050565b60006020820190508181036000830152613c1b818461345c565b905092915050565b6000602082019050613c3860008301846134d1565b92915050565b60006020820190508181036000830152613c588184613552565b905092915050565b60006080820190508181036000830152613c7a8187613552565b90508181036020830152613c8e8186613552565b90508181036040830152613ca28185613552565b9050613cb16060830184613a8d565b95945050505050565b60006080820190508181036000830152613cd48187613552565b90508181036020830152613ce88186613552565b9050613cf76040830185613a8d565b8181036060830152613d098184613552565b905095945050505050565b60006080820190508181036000830152613d2e8187613552565b90508181036020830152613d428186613552565b9050613d516040830185613a8d565b613d5e6060830184613a8d565b95945050505050565b600060a0820190508181036000830152613d818188613552565b90508181036020830152613d958187613552565b9050613da46040830186613a8d565b613db16060830185613a8d565b613dbe6080830184613a8d565b9695505050505050565b60006060820190508181036000830152613de28186613552565b9050613df16020830185613a8d565b613dfe6040830184613a8d565b949350505050565b60006020820190508181036000830152613e1f816135bc565b9050919050565b60006020820190508181036000830152613e3f81613602565b9050919050565b60006020820190508181036000830152613e5f81613625565b9050919050565b60006020820190508181036000830152613e7f81613648565b9050919050565b60006020820190508181036000830152613e9f8161368e565b9050919050565b60006020820190508181036000830152613ebf816136b1565b9050919050565b60006020820190508181036000830152613edf816136d4565b9050919050565b60006020820190508181036000830152613eff816136f7565b9050919050565b60006020820190508181036000830152613f1f8161371a565b9050919050565b60006020820190508181036000830152613f3f8161373d565b9050919050565b60006020820190508181036000830152613f5f81613783565b9050919050565b60006020820190508181036000830152613f7f816137a6565b9050919050565b60006020820190508181036000830152613f9f816137c9565b9050919050565b60006020820190508181036000830152613fbf81613832565b9050919050565b60006020820190508181036000830152613fdf81613878565b9050919050565b6000602082019050818103600083015261400081846138e1565b905092915050565b6000602082019050818103600083015261402281846139ee565b905092915050565b600060208201905061403f6000830184613a8d565b92915050565b600060c08201905061405a6000830189613a8d565b818103602083015261406c8188613552565b905081810360408301526140808187613552565b905061408f6060830186613a8d565b61409c6080830185613a8d565b6140a960a0830184613a8d565b979650505050505050565b60006040820190506140c96000830185613a8d565b6140d66020830184613a8d565b9392505050565b60006140e76140f8565b90506140f382826143bd565b919050565b6000604051905090565b600067ffffffffffffffff82111561411d5761411c6144f5565b5b61412682614524565b9050602081019050919050565b6000819050602082019050919050565b600081519050919050565b600081519050919050565b600081519050919050565b6000602082019050919050565b600082825260208201905092915050565b600082825260208201905092915050565b600082825260208201905092915050565b600082825260208201905092915050565b600081905092915050565b60006141cb8261433f565b91506141d68361433f565b9250827fffffffffffffffffffffffffffffffffffffffffffffffffffffffffffffffff0382111561420b5761420a614468565b5b828201905092915050565b60006142218261433f565b915061422c8361433f565b92508261423c5761423b614497565b5b828204905092915050565b60006142528261433f565b915061425d8361433f565b9250817fffffffffffffffffffffffffffffffffffffffffffffffffffffffffffffffff048311821515161561429657614295614468565b5b828202905092915050565b60006142ac8261433f565b91506142b78361433f565b9250828210156142ca576142c9614468565b5b828203905092915050565b60006142e08261431f565b9050919050565b60008115159050919050565b60007fffffffff0000000000000000000000000000000000000000000000000000000082169050919050565b600073ffffffffffffffffffffffffffffffffffffffff82169050919050565b6000819050919050565b82818337600083830152505050565b60005b8381101561437657808201518184015260208101905061435b565b83811115614385576000848401525b50505050565b600060028204905060018216806143a357607f821691505b602082108114156143b7576143b66144c6565b5b50919050565b6143c682614524565b810181811067ffffffffffffffff821117156143e5576143e46144f5565b5b80604052505050565b60006143f98261433f565b91507fffffffffffffffffffffffffffffffffffffffffffffffffffffffffffffffff82141561442c5761442b614468565b5b600182019050919050565b60006144428261433f565b915061444d8361433f565b92508261445d5761445c614497565b5b828206905092915050565b7f4e487b7100000000000000000000000000000000000000000000000000000000600052601160045260246000fd5b7f4e487b7100000000000000000000000000000000000000000000000000000000600052601260045260246000fd5b7f4e487b7100000000000000000000000000000000000000000000000000000000600052602260045260246000fd5b7f4e487b7100000000000000000000000000000000000000000000000000000000600052604160045260246000fd5b6000601f19601f8301169050919050565b7f4572726f723a204865616c746820746f6f206c6f7720746f2061747461636b2060008201527f74686520426f73732e2e2e000000000000000000000000000000000000000000602082015250565b7f202d2d204e465420233a20000000000000000000000000000000000000000000600082015250565b7f4552433732313a207472616e7366657220746f206e6f6e20455243373231526560008201527f63656976657220696d706c656d656e7465720000000000000000000000000000602082015250565b7f4552433732313a20746f6b656e20616c7265616479206d696e74656400000000600082015250565b7f4572726f723a20426f7373206d7573742068617665206865616c746820746f2060008201527f61747461636b2e2e2e0000000000000000000000000000000000000000000000602082015250565b7f2c20226d61785f76616c7565223a000000000000000000000000000000000000600082015250565b7f4552433732313a207472616e7366657220746f20746865207a65726f2061646460008201527f7265737300000000000000000000000000000000000000000000000000000000602082015250565b7f4552433732313a20617070726f766520746f2063616c6c657200000000000000600082015250565b7f4552433732313a206f70657261746f7220717565727920666f72206e6f6e657860008201527f697374656e7420746f6b656e0000000000000000000000000000000000000000602082015250565b7f4552433732313a20617070726f76652063616c6c6572206973206e6f74206f7760008201527f6e6572206e6f7220617070726f76656420666f7220616c6c0000000000000000602082015250565b7f4552433732313a2062616c616e636520717565727920666f7220746865207a6560008201527f726f206164647265737300000000000000000000000000000000000000000000602082015250565b7f4552433732313a206f776e657220717565727920666f72206e6f6e657869737460008201527f656e7420746f6b656e0000000000000000000000000000000000000000000000602082015250565b7f7d205d7d00000000000000000000000000000000000000000000000000000000600082015250565b7f4552433732313a206d696e7420746f20746865207a65726f2061646472657373600082015250565b7f4552433732313a20617070726f76656420717565727920666f72206e6f6e657860008201527f697374656e7420746f6b656e0000000000000000000000000000000000000000602082015250565b7f4552433732313a207472616e73666572206f6620746f6b656e2074686174206960008201527f73206e6f74206f776e0000000000000000000000000000000000000000000000602082015250565b7f7b226e616d65223a202200000000000000000000000000000000000000000000600082015250565b7f222c20226465736372697074696f6e223a20225468697320697320616e204e4660008201527f542074686174206c6574732070656f706c6520706c617920696e20746865206760208201527f616d65205363617266616365204d657461766572736521222c2022696d61676560408201527f223a202200000000000000000000000000000000000000000000000000000000606082015250565b7f4552433732313a20617070726f76616c20746f2063757272656e74206f776e6560008201527f7200000000000000000000000000000000000000000000000000000000000000602082015250565b7f646174613a6170706c69636174696f6e2f6a736f6e3b6261736536342c000000600082015250565b7f4552433732313a207472616e736665722063616c6c6572206973206e6f74206f60008201527f776e6572206e6f7220617070726f766564000000000000000000000000000000602082015250565b7f222c202261747472696275746573223a205b207b202274726169745f7479706560008201527f223a20224865616c746820506f696e7473222c202276616c7565223a20000000602082015250565b7f7d2c207b202274726169745f74797065223a202241747461636b2044616d616760008201527f65222c202276616c7565223a2000000000000000000000000000000000000000602082015250565b614b73816142d5565b8114614b7e57600080fd5b50565b614b8a816142e7565b8114614b9557600080fd5b50565b614ba1816142f3565b8114614bac57600080fd5b50565b614bb88161433f565b8114614bc357600080fd5b5056fe0a25732061626f757420746f2061747461636b2e204865616c74683a2025732c2041747461636b2044616d6167653a202573426f737320556e6465722061747461636b20627920257321212120426f7373204865616c74683a2025732c20426f73732041747461636b2044616d6167653a4142434445464748494a4b4c4d4e4f505152535455565758595a6162636465666768696a6b6c6d6e6f707172737475767778797a303132333435363738392b2f25732061747461636b65642025732e206e657720426f7373204865616c74683a20257325732061747461636b65642025732e206e657720706c61796572204865616c74683a2025730a4d696e746564204e465420772f20746f6b656e496420257320616e6420636861726163746572496e6465782025732d2d2d2d2d2d2d2d2d2d2d2d2d2d2d2d2d2d2d2d2d2d2d2d2d2d2d2d2d2d2d2d2d2d2d2d2d2d2d2d2d2d2d2d2da2646970667358221220b5fc6601be0883f1c44d37529e234b2521c2d4e9d11b71fef24de0b04a7cd00c64736f6c634300080400332d2d2d2d2d2d2d2d2d2d2d2d2d2d2d2d2d2d2d2d2d2d2d2d2d2d2d2d2d2d2d2d2d2d2d2d2d2d2d2d2d2d2d2d2d2d2d2d2d2d2d2d2d2d2d2d2d2d2d2d2d2d2d2d2d2d2d2d2d2d496e697469616c697a696e672074686520426f73732c20706c6561736520776169742e2e2e2d2d2d2d2d2d2d2d2d2d2d2d2d2d2d2d2d2d2d2d2d2d2d2d2d2d2d2d2d2d2d2d2d2d2d2d2d2d2d2d2d2d2d2d2d2d2d2d2d2d2d2d2d2d2d54686573652068616e6473206f7567687420746f206265207069636b696e6720676f6c642066726f6d20746865207374726565742c206e6f742063757474696e67206675636b696e67206f6e696f6e7321446f6e6520696e697469616c697a696e6720257320772f204865616c74682025732c20696d67202573446f6e6520696e697469616c697a696e672074686520426f737320257320772f204865616c74682025732c20696d67202573",
  "linkReferences": {},
  "deployedLinkReferences": {}
}